{
  "_format": "hh3-artifact-1",
  "contractName": "RealEstateTokenRetry",
  "sourceName": "contracts/RealEstateTokenRetry.sol",
  "abi": [
    {
      "inputs": [
        {
          "internalType": "string",
          "name": "uri_",
          "type": "string"
        },
        {
          "internalType": "address",
          "name": "ccipRouterAddress",
          "type": "address"
        },
        {
          "internalType": "address",
          "name": "linkTokenAddress",
          "type": "address"
        },
        {
          "internalType": "uint64",
          "name": "currentChainSelector",
          "type": "uint64"
        },
        {
          "internalType": "address",
          "name": "functionsRouterAddress",
          "type": "address"
        }
      ],
      "stateMutability": "nonpayable",
      "type": "constructor"
    },
    {
      "inputs": [
        {
          "internalType": "uint64",
          "name": "chainSelector",
          "type": "uint64"
        }
      ],
      "name": "ChainNotEnabled",
      "type": "error"
    },
    {
      "inputs": [],
      "name": "ERC1155Core__CallerIsNotIssuerOrItself",
      "type": "error"
    },
    {
      "inputs": [
        {
          "internalType": "address",
          "name": "sender",
          "type": "address"
        },
        {
          "internalType": "uint256",
          "name": "balance",
          "type": "uint256"
        },
        {
          "internalType": "uint256",
          "name": "needed",
          "type": "uint256"
        },
        {
          "internalType": "uint256",
          "name": "tokenId",
          "type": "uint256"
        }
      ],
      "name": "ERC1155InsufficientBalance",
      "type": "error"
    },
    {
      "inputs": [
        {
          "internalType": "address",
          "name": "approver",
          "type": "address"
        }
      ],
      "name": "ERC1155InvalidApprover",
      "type": "error"
    },
    {
      "inputs": [
        {
          "internalType": "uint256",
          "name": "idsLength",
          "type": "uint256"
        },
        {
          "internalType": "uint256",
          "name": "valuesLength",
          "type": "uint256"
        }
      ],
      "name": "ERC1155InvalidArrayLength",
      "type": "error"
    },
    {
      "inputs": [
        {
          "internalType": "address",
          "name": "operator",
          "type": "address"
        }
      ],
      "name": "ERC1155InvalidOperator",
      "type": "error"
    },
    {
      "inputs": [
        {
          "internalType": "address",
          "name": "receiver",
          "type": "address"
        }
      ],
      "name": "ERC1155InvalidReceiver",
      "type": "error"
    },
    {
      "inputs": [
        {
          "internalType": "address",
          "name": "sender",
          "type": "address"
        }
      ],
      "name": "ERC1155InvalidSender",
      "type": "error"
    },
    {
      "inputs": [
        {
          "internalType": "address",
          "name": "operator",
          "type": "address"
        },
        {
          "internalType": "address",
          "name": "owner",
          "type": "address"
        }
      ],
      "name": "ERC1155MissingApprovalForAll",
      "type": "error"
    },
    {
      "inputs": [],
      "name": "EmptyArgs",
      "type": "error"
    },
    {
      "inputs": [],
      "name": "EmptySource",
      "type": "error"
    },
    {
      "inputs": [],
      "name": "FailedToWithdraw",
      "type": "error"
    },
    {
      "inputs": [
        {
          "internalType": "address",
          "name": "router",
          "type": "address"
        }
      ],
      "name": "InvalidRouter",
      "type": "error"
    },
    {
      "inputs": [],
      "name": "NoInlineSecrets",
      "type": "error"
    },
    {
      "inputs": [
        {
          "internalType": "uint256",
          "name": "balance",
          "type": "uint256"
        },
        {
          "internalType": "uint256",
          "name": "required",
          "type": "uint256"
        }
      ],
      "name": "NotEnoughBalanceForFees",
      "type": "error"
    },
    {
      "inputs": [],
      "name": "NothingToWithdraw",
      "type": "error"
    },
    {
      "inputs": [],
      "name": "OnlyAutomationForwarderOrOwnerCanCall",
      "type": "error"
    },
    {
      "inputs": [],
      "name": "OnlyRouterCanFulfill",
      "type": "error"
    },
    {
      "inputs": [
        {
          "internalType": "uint64",
          "name": "chainSelector",
          "type": "uint64"
        }
      ],
      "name": "OperationNotAllowedOnChain",
      "type": "error"
    },
    {
      "inputs": [],
      "name": "ReentrancyGuardReentrantCall",
      "type": "error"
    },
    {
      "inputs": [
        {
          "internalType": "address",
          "name": "token",
          "type": "address"
        }
      ],
      "name": "SafeERC20FailedOperation",
      "type": "error"
    },
    {
      "inputs": [
        {
          "internalType": "address",
          "name": "sender",
          "type": "address"
        }
      ],
      "name": "SenderNotEnabled",
      "type": "error"
    },
    {
      "anonymous": false,
      "inputs": [
        {
          "indexed": true,
          "internalType": "address",
          "name": "account",
          "type": "address"
        },
        {
          "indexed": true,
          "internalType": "address",
          "name": "operator",
          "type": "address"
        },
        {
          "indexed": false,
          "internalType": "bool",
          "name": "approved",
          "type": "bool"
        }
      ],
      "name": "ApprovalForAll",
      "type": "event"
    },
    {
      "anonymous": false,
      "inputs": [
        {
          "indexed": false,
          "internalType": "uint64",
          "name": "chainSelector",
          "type": "uint64"
        }
      ],
      "name": "ChainDisabled",
      "type": "event"
    },
    {
      "anonymous": false,
      "inputs": [
        {
          "indexed": false,
          "internalType": "uint64",
          "name": "destChainSelector",
          "type": "uint64"
        },
        {
          "indexed": false,
          "internalType": "address",
          "name": "nftAddress",
          "type": "address"
        },
        {
          "indexed": false,
          "internalType": "bytes",
          "name": "ccipExtraArgsBytes",
          "type": "bytes"
        }
      ],
      "name": "ChainEnabled",
      "type": "event"
    },
    {
      "anonymous": false,
      "inputs": [
        {
          "indexed": false,
          "internalType": "address",
          "name": "from",
          "type": "address"
        },
        {
          "indexed": false,
          "internalType": "address",
          "name": "to",
          "type": "address"
        },
        {
          "indexed": false,
          "internalType": "uint256",
          "name": "id",
          "type": "uint256"
        },
        {
          "indexed": false,
          "internalType": "uint256",
          "name": "amount",
          "type": "uint256"
        },
        {
          "indexed": false,
          "internalType": "bytes",
          "name": "data",
          "type": "bytes"
        },
        {
          "indexed": false,
          "internalType": "uint64",
          "name": "sourceChainSelector",
          "type": "uint64"
        },
        {
          "indexed": false,
          "internalType": "uint64",
          "name": "destChainSelector",
          "type": "uint64"
        }
      ],
      "name": "CrossChainReceived",
      "type": "event"
    },
    {
      "anonymous": false,
      "inputs": [
        {
          "indexed": false,
          "internalType": "address",
          "name": "from",
          "type": "address"
        },
        {
          "indexed": false,
          "internalType": "address",
          "name": "to",
          "type": "address"
        },
        {
          "indexed": false,
          "internalType": "uint256",
          "name": "id",
          "type": "uint256"
        },
        {
          "indexed": false,
          "internalType": "uint256",
          "name": "amount",
          "type": "uint256"
        },
        {
          "indexed": false,
          "internalType": "bytes",
          "name": "data",
          "type": "bytes"
        },
        {
          "indexed": false,
          "internalType": "uint64",
          "name": "sourceChainSelector",
          "type": "uint64"
        },
        {
          "indexed": false,
          "internalType": "uint64",
          "name": "destChainSelector",
          "type": "uint64"
        }
      ],
      "name": "CrossChainSent",
      "type": "event"
    },
    {
      "anonymous": false,
      "inputs": [
        {
          "indexed": true,
          "internalType": "address",
          "name": "issuer",
          "type": "address"
        }
      ],
      "name": "IssuerSet",
      "type": "event"
    },
    {
      "anonymous": false,
      "inputs": [
        {
          "indexed": true,
          "internalType": "address",
          "name": "from",
          "type": "address"
        },
        {
          "indexed": true,
          "internalType": "address",
          "name": "to",
          "type": "address"
        }
      ],
      "name": "OwnershipTransferRequested",
      "type": "event"
    },
    {
      "anonymous": false,
      "inputs": [
        {
          "indexed": true,
          "internalType": "address",
          "name": "from",
          "type": "address"
        },
        {
          "indexed": true,
          "internalType": "address",
          "name": "to",
          "type": "address"
        }
      ],
      "name": "OwnershipTransferred",
      "type": "event"
    },
    {
      "anonymous": false,
      "inputs": [
        {
          "indexed": true,
          "internalType": "bytes32",
          "name": "id",
          "type": "bytes32"
        }
      ],
      "name": "RequestFulfilled",
      "type": "event"
    },
    {
      "anonymous": false,
      "inputs": [
        {
          "indexed": true,
          "internalType": "bytes32",
          "name": "id",
          "type": "bytes32"
        }
      ],
      "name": "RequestSent",
      "type": "event"
    },
    {
      "anonymous": false,
      "inputs": [
        {
          "indexed": true,
          "internalType": "address",
          "name": "operator",
          "type": "address"
        },
        {
          "indexed": true,
          "internalType": "address",
          "name": "from",
          "type": "address"
        },
        {
          "indexed": true,
          "internalType": "address",
          "name": "to",
          "type": "address"
        },
        {
          "indexed": false,
          "internalType": "uint256[]",
          "name": "ids",
          "type": "uint256[]"
        },
        {
          "indexed": false,
          "internalType": "uint256[]",
          "name": "values",
          "type": "uint256[]"
        }
      ],
      "name": "TransferBatch",
      "type": "event"
    },
    {
      "anonymous": false,
      "inputs": [
        {
          "indexed": true,
          "internalType": "address",
          "name": "operator",
          "type": "address"
        },
        {
          "indexed": true,
          "internalType": "address",
          "name": "from",
          "type": "address"
        },
        {
          "indexed": true,
          "internalType": "address",
          "name": "to",
          "type": "address"
        },
        {
          "indexed": false,
          "internalType": "uint256",
          "name": "id",
          "type": "uint256"
        },
        {
          "indexed": false,
          "internalType": "uint256",
          "name": "value",
          "type": "uint256"
        }
      ],
      "name": "TransferSingle",
      "type": "event"
    },
    {
      "anonymous": false,
      "inputs": [
        {
          "indexed": false,
          "internalType": "string",
          "name": "value",
          "type": "string"
        },
        {
          "indexed": true,
          "internalType": "uint256",
          "name": "id",
          "type": "uint256"
        }
      ],
      "name": "URI",
      "type": "event"
    },
    {
      "inputs": [],
      "name": "acceptOwnership",
      "outputs": [],
      "stateMutability": "nonpayable",
      "type": "function"
    },
    {
      "inputs": [
        {
          "internalType": "address",
          "name": "account",
          "type": "address"
        },
        {
          "internalType": "uint256",
          "name": "id",
          "type": "uint256"
        }
      ],
      "name": "balanceOf",
      "outputs": [
        {
          "internalType": "uint256",
          "name": "",
          "type": "uint256"
        }
      ],
      "stateMutability": "view",
      "type": "function"
    },
    {
      "inputs": [
        {
          "internalType": "address[]",
          "name": "accounts",
          "type": "address[]"
        },
        {
          "internalType": "uint256[]",
          "name": "ids",
          "type": "uint256[]"
        }
      ],
      "name": "balanceOfBatch",
      "outputs": [
        {
          "internalType": "uint256[]",
          "name": "",
          "type": "uint256[]"
        }
      ],
      "stateMutability": "view",
      "type": "function"
    },
    {
      "inputs": [
        {
          "internalType": "address",
          "name": "account",
          "type": "address"
        },
        {
          "internalType": "uint256",
          "name": "id",
          "type": "uint256"
        },
        {
          "internalType": "uint256",
          "name": "amount",
          "type": "uint256"
        }
      ],
      "name": "burn",
      "outputs": [],
      "stateMutability": "nonpayable",
      "type": "function"
    },
    {
      "inputs": [
        {
          "internalType": "address",
          "name": "account",
          "type": "address"
        },
        {
          "internalType": "uint256[]",
          "name": "ids",
          "type": "uint256[]"
        },
        {
          "internalType": "uint256[]",
          "name": "amounts",
          "type": "uint256[]"
        }
      ],
      "name": "burnBatch",
      "outputs": [],
      "stateMutability": "nonpayable",
      "type": "function"
    },
    {
      "inputs": [
        {
          "components": [
            {
              "internalType": "bytes32",
              "name": "messageId",
              "type": "bytes32"
            },
            {
              "internalType": "uint64",
              "name": "sourceChainSelector",
              "type": "uint64"
            },
            {
              "internalType": "bytes",
              "name": "sender",
              "type": "bytes"
            },
            {
              "internalType": "bytes",
              "name": "data",
              "type": "bytes"
            },
            {
              "components": [
                {
                  "internalType": "address",
                  "name": "token",
                  "type": "address"
                },
                {
                  "internalType": "uint256",
                  "name": "amount",
                  "type": "uint256"
                }
              ],
              "internalType": "struct Client.EVMTokenAmount[]",
              "name": "destTokenAmounts",
              "type": "tuple[]"
            }
          ],
          "internalType": "struct Client.Any2EVMMessage",
          "name": "message",
          "type": "tuple"
        }
      ],
      "name": "ccipReceive",
      "outputs": [],
      "stateMutability": "nonpayable",
      "type": "function"
    },
    {
      "inputs": [
        {
          "internalType": "address",
          "name": "from",
          "type": "address"
        },
        {
          "internalType": "address",
          "name": "to",
          "type": "address"
        },
        {
          "internalType": "uint256",
          "name": "id",
          "type": "uint256"
        },
        {
          "internalType": "uint256",
          "name": "amount",
          "type": "uint256"
        },
        {
          "internalType": "bytes",
          "name": "data",
          "type": "bytes"
        },
        {
          "internalType": "uint64",
          "name": "destChainSelector",
          "type": "uint64"
        },
        {
          "internalType": "enum CrossChainBurnAndMintERC1155.PayFeesIn",
          "name": "payFeesIn",
          "type": "uint8"
        }
      ],
      "name": "crossChainTransferFrom",
      "outputs": [
        {
          "internalType": "bytes32",
          "name": "messageId",
          "type": "bytes32"
        }
      ],
      "stateMutability": "nonpayable",
      "type": "function"
    },
    {
      "inputs": [
        {
          "internalType": "uint64",
          "name": "chainSelector",
          "type": "uint64"
        }
      ],
      "name": "disableChain",
      "outputs": [],
      "stateMutability": "nonpayable",
      "type": "function"
    },
    {
      "inputs": [
        {
          "internalType": "uint64",
          "name": "chainSelector",
          "type": "uint64"
        },
        {
          "internalType": "address",
          "name": "xNftAddress",
          "type": "address"
        },
        {
          "internalType": "bytes",
          "name": "ccipExtraArgsBytes",
          "type": "bytes"
        }
      ],
      "name": "enableChain",
      "outputs": [],
      "stateMutability": "nonpayable",
      "type": "function"
    },
    {
      "inputs": [
        {
          "internalType": "uint256",
          "name": "id",
          "type": "uint256"
        }
      ],
      "name": "exists",
      "outputs": [
        {
          "internalType": "bool",
          "name": "",
          "type": "bool"
        }
      ],
      "stateMutability": "view",
      "type": "function"
    },
    {
      "inputs": [],
      "name": "getNftMetadata",
      "outputs": [
        {
          "internalType": "string",
          "name": "",
          "type": "string"
        }
      ],
      "stateMutability": "view",
      "type": "function"
    },
    {
      "inputs": [
        {
          "internalType": "uint256",
          "name": "tokenId",
          "type": "uint256"
        }
      ],
      "name": "getPriceDetails",
      "outputs": [
        {
          "components": [
            {
              "internalType": "uint80",
              "name": "listPrice",
              "type": "uint80"
            },
            {
              "internalType": "uint80",
              "name": "originalListPrice",
              "type": "uint80"
            },
            {
              "internalType": "uint80",
              "name": "taxAssessedValue",
              "type": "uint80"
            }
          ],
          "internalType": "struct RealEstatePriceDetailsRetry.PriceDetails",
          "name": "",
          "type": "tuple"
        }
      ],
      "stateMutability": "view",
      "type": "function"
    },
    {
      "inputs": [],
      "name": "getPrices",
      "outputs": [
        {
          "internalType": "string",
          "name": "",
          "type": "string"
        }
      ],
      "stateMutability": "view",
      "type": "function"
    },
    {
      "inputs": [
        {
          "internalType": "bytes32",
          "name": "requestId",
          "type": "bytes32"
        },
        {
          "internalType": "bytes",
          "name": "response",
          "type": "bytes"
        },
        {
          "internalType": "bytes",
          "name": "err",
          "type": "bytes"
        }
      ],
      "name": "handleOracleFulfillment",
      "outputs": [],
      "stateMutability": "nonpayable",
      "type": "function"
    },
    {
      "inputs": [
        {
          "internalType": "address",
          "name": "account",
          "type": "address"
        },
        {
          "internalType": "address",
          "name": "operator",
          "type": "address"
        }
      ],
      "name": "isApprovedForAll",
      "outputs": [
        {
          "internalType": "bool",
          "name": "",
          "type": "bool"
        }
      ],
      "stateMutability": "view",
      "type": "function"
    },
    {
      "inputs": [
        {
          "internalType": "address",
          "name": "_to",
          "type": "address"
        },
        {
          "internalType": "uint256",
          "name": "_id",
          "type": "uint256"
        },
        {
          "internalType": "uint256",
          "name": "_amount",
          "type": "uint256"
        },
        {
          "internalType": "bytes",
          "name": "_data",
          "type": "bytes"
        },
        {
          "internalType": "string",
          "name": "_tokenUri",
          "type": "string"
        }
      ],
      "name": "mint",
      "outputs": [],
      "stateMutability": "nonpayable",
      "type": "function"
    },
    {
      "inputs": [
        {
          "internalType": "address",
          "name": "_to",
          "type": "address"
        },
        {
          "internalType": "uint256[]",
          "name": "_ids",
          "type": "uint256[]"
        },
        {
          "internalType": "uint256[]",
          "name": "_amounts",
          "type": "uint256[]"
        },
        {
          "internalType": "bytes",
          "name": "_data",
          "type": "bytes"
        },
        {
          "internalType": "string[]",
          "name": "_tokenUris",
          "type": "string[]"
        }
      ],
      "name": "mintBatch",
      "outputs": [],
      "stateMutability": "nonpayable",
      "type": "function"
    },
    {
      "inputs": [],
      "name": "owner",
      "outputs": [
        {
          "internalType": "address",
          "name": "",
          "type": "address"
        }
      ],
      "stateMutability": "view",
      "type": "function"
    },
    {
      "inputs": [
        {
          "internalType": "address",
          "name": "from",
          "type": "address"
        },
        {
          "internalType": "address",
          "name": "to",
          "type": "address"
        },
        {
          "internalType": "uint256[]",
          "name": "ids",
          "type": "uint256[]"
        },
        {
          "internalType": "uint256[]",
          "name": "values",
          "type": "uint256[]"
        },
        {
          "internalType": "bytes",
          "name": "data",
          "type": "bytes"
        }
      ],
      "name": "safeBatchTransferFrom",
      "outputs": [],
      "stateMutability": "nonpayable",
      "type": "function"
    },
    {
      "inputs": [
        {
          "internalType": "address",
          "name": "from",
          "type": "address"
        },
        {
          "internalType": "address",
          "name": "to",
          "type": "address"
        },
        {
          "internalType": "uint256",
          "name": "id",
          "type": "uint256"
        },
        {
          "internalType": "uint256",
          "name": "value",
          "type": "uint256"
        },
        {
          "internalType": "bytes",
          "name": "data",
          "type": "bytes"
        }
      ],
      "name": "safeTransferFrom",
      "outputs": [],
      "stateMutability": "nonpayable",
      "type": "function"
    },
    {
      "inputs": [
        {
          "internalType": "address",
          "name": "operator",
          "type": "address"
        },
        {
          "internalType": "bool",
          "name": "approved",
          "type": "bool"
        }
      ],
      "name": "setApprovalForAll",
      "outputs": [],
      "stateMutability": "nonpayable",
      "type": "function"
    },
    {
      "inputs": [
        {
          "internalType": "address",
          "name": "automationForwarderAddress",
          "type": "address"
        }
      ],
      "name": "setAutomationForwarder",
      "outputs": [],
      "stateMutability": "nonpayable",
      "type": "function"
    },
    {
      "inputs": [
        {
          "internalType": "address",
          "name": "issuer",
          "type": "address"
        }
      ],
      "name": "setIssuer",
      "outputs": [],
      "stateMutability": "nonpayable",
      "type": "function"
    },
    {
      "inputs": [
        {
          "internalType": "bytes4",
          "name": "interfaceId",
          "type": "bytes4"
        }
      ],
      "name": "supportsInterface",
      "outputs": [
        {
          "internalType": "bool",
          "name": "",
          "type": "bool"
        }
      ],
      "stateMutability": "view",
      "type": "function"
    },
    {
      "inputs": [],
      "name": "totalSupply",
      "outputs": [
        {
          "internalType": "uint256",
          "name": "",
          "type": "uint256"
        }
      ],
      "stateMutability": "view",
      "type": "function"
    },
    {
      "inputs": [
        {
          "internalType": "uint256",
          "name": "id",
          "type": "uint256"
        }
      ],
      "name": "totalSupply",
      "outputs": [
        {
          "internalType": "uint256",
          "name": "",
          "type": "uint256"
        }
      ],
      "stateMutability": "view",
      "type": "function"
    },
    {
      "inputs": [
        {
          "internalType": "address",
          "name": "to",
          "type": "address"
        }
      ],
      "name": "transferOwnership",
      "outputs": [],
      "stateMutability": "nonpayable",
      "type": "function"
    },
    {
      "inputs": [
        {
          "internalType": "string",
          "name": "tokenId",
          "type": "string"
        },
        {
          "internalType": "uint64",
          "name": "subscriptionId",
          "type": "uint64"
        },
        {
          "internalType": "uint32",
          "name": "gasLimit",
          "type": "uint32"
        },
        {
          "internalType": "bytes32",
          "name": "donID",
          "type": "bytes32"
        }
      ],
      "name": "updatePriceDetails",
      "outputs": [
        {
          "internalType": "bytes32",
          "name": "requestId",
          "type": "bytes32"
        }
      ],
      "stateMutability": "nonpayable",
      "type": "function"
    },
    {
      "inputs": [
        {
          "internalType": "uint256",
          "name": "tokenId",
          "type": "uint256"
        }
      ],
      "name": "uri",
      "outputs": [
        {
          "internalType": "string",
          "name": "",
          "type": "string"
        }
      ],
      "stateMutability": "view",
      "type": "function"
    },
    {
      "inputs": [
        {
          "internalType": "address",
          "name": "_beneficiary",
          "type": "address"
        }
      ],
      "name": "withdraw",
      "outputs": [],
      "stateMutability": "nonpayable",
      "type": "function"
    },
    {
      "inputs": [
        {
          "internalType": "address",
          "name": "_token",
          "type": "address"
        },
        {
          "internalType": "address",
          "name": "_beneficiary",
          "type": "address"
        }
      ],
      "name": "withdrawToken",
      "outputs": [],
      "stateMutability": "nonpayable",
      "type": "function"
    }
  ],
  "bytecode": "0x610860604052610723610100818152906144706101203960059061002390826102a4565b506040518061058001604052806105588152602001614b93610558913960069061004d90826102a4565b50348015610059575f5ffd5b506040516150eb3803806150eb8339810160408190526100789161038f565b80858585858333805f888461008c81610153565b506001600160a01b0390811660805282166100ee5760405162461bcd60e51b815260206004820152601860248201527f43616e6e6f7420736574206f776e657220746f207a65726f000000000000000060448201526064015b60405180910390fd5b600780546001600160a01b0319166001600160a01b038481169190911790915581161561011e5761011e81610163565b50506001600b5550506001600160a01b0392831660a052911660c0526001600160401b031660e0525061048095505050505050565b600261015f82826102a4565b5050565b336001600160a01b038216036101bb5760405162461bcd60e51b815260206004820152601760248201527f43616e6e6f74207472616e7366657220746f2073656c6600000000000000000060448201526064016100e5565b600880546001600160a01b0319166001600160a01b03838116918217909255600754604051919216907fed8889f560326eb138920d842192f0eb3dd22b4f139c87a2c57538e05bae1278905f90a350565b634e487b7160e01b5f52604160045260245ffd5b600181811c9082168061023457607f821691505b60208210810361025257634e487b7160e01b5f52602260045260245ffd5b50919050565b601f82111561029f57805f5260205f20601f840160051c8101602085101561027d5750805b601f840160051c820191505b8181101561029c575f8155600101610289565b50505b505050565b81516001600160401b038111156102bd576102bd61020c565b6102d1816102cb8454610220565b84610258565b6020601f821160018114610303575f83156102ec5750848201515b5f19600385901b1c1916600184901b17845561029c565b5f84815260208120601f198516915b828110156103325787850151825560209485019460019092019101610312565b508482101561034f57868401515f19600387901b60f8161c191681555b50505050600190811b01905550565b80516001600160a01b0381168114610374575f5ffd5b919050565b80516001600160401b0381168114610374575f5ffd5b5f5f5f5f5f60a086880312156103a3575f5ffd5b85516001600160401b038111156103b8575f5ffd5b8601601f810188136103c8575f5ffd5b80516001600160401b038111156103e1576103e161020c565b604051601f8201601f19908116603f011681016001600160401b038111828210171561040f5761040f61020c565b6040528181528282016020018a1015610426575f5ffd5b8160208401602083015e5f6020838301015280975050505061044a6020870161035e565b93506104586040870161035e565b925061046660608701610379565b91506104746080870161035e565b90509295509295909350565b60805160a05160c05160e051613f706105005f395f81816105f401528181610dec01528181610f5d015261149d01525f81816108f901528181610a9f01528181610b2b0152610c0601525f81816109e201528181610bd701528181610c8801528181610d47015261133201525f81816105710152611f850152613f705ff3fe608060405234801561000f575f5ffd5b50600436106101db575f3560e01c806379ba509711610109578063c1341c4f1161009e578063f0ed2e801161006e578063f0ed2e8014610415578063f242432a146104b7578063f2fde38b146104ca578063f5298aca146104dd575f5ffd5b8063c1341c4f146103d4578063d40d17bc146103e7578063e6b46ff5146103fa578063e985e9c514610402575f5ffd5b8063a843a0ab116100d9578063a843a0ab14610387578063b942f8cb1461039a578063bd85b039146103ad578063bd9a548b146103cc575f5ffd5b806379ba50971461033e57806385572ffb146103465780638da5cb5b14610359578063a22cb46514610374575f5ffd5b80632eb2c2d61161017f5780634f558e791161014f5780634f558e79146102e457806351cff8d91461030557806355cc4e57146103185780636b20c4541461032b575f5ffd5b80632eb2c2d61461028b5780633aeac4e11461029e57806341eade46146102b15780634e1273f4146102c4575f5ffd5b80630ce639c4116101ba5780630ce639c41461023d5780630e89341c1461025057806318160ddd14610270578063240b3b4914610278575f5ffd5b8062fdd58e146101df57806301ffc9a7146102055780630ca7617514610228575b5f5ffd5b6101f26101ed366004612d9d565b6104f0565b6040519081526020015b60405180910390f35b610218610213366004612ddc565b610517565b60405190151581526020016101fc565b61023b610236366004612eff565b610566565b005b61023b61024b366004612f85565b6105e9565b61026361025e366004612fca565b6106f7565b6040516101fc919061300f565b6004546101f2565b6101f2610286366004613021565b6107b1565b61023b61029936600461313f565b610e40565b61023b6102ac3660046131ef565b610ea7565b61023b6102bf366004613226565b610f52565b6102d76102d236600461323f565b61102d565b6040516101fc9190613332565b6102186102f2366004612fca565b5f90815260036020526040902054151590565b61023b610313366004613344565b6110f7565b61023b610326366004613344565b611191565b61023b61033936600461335f565b6111e2565b61023b61127a565b61023b610354366004613452565b611327565b6007546040516001600160a01b0390911681526020016101fc565b61023b610382366004613538565b6114ee565b6101f2610395366004613564565b6114fd565b61023b6103a836600461364d565b611656565b6101f26103bb366004612fca565b5f9081526003602052604090205490565b6102636116ff565b61023b6103e2366004613707565b61178b565b61023b6103f5366004613344565b6117e7565b610263611811565b6102186104103660046131ef565b61181e565b610482610423366004612fca565b60408051606080820183525f8083526020808401829052928401819052938452600e825292829020825193840183525469ffffffffffffffffffff8082168552600160501b8204811692850192909252600160a01b9004169082015290565b60408051825169ffffffffffffffffffff908116825260208085015182169083015292820151909216908201526060016101fc565b61023b6104c536600461375a565b61184b565b61023b6104d8366004613344565b6118aa565b61023b6104eb3660046137b1565b6118bb565b5f818152602081815260408083206001600160a01b03861684529091529020545b92915050565b5f6001600160e01b03198216636cdb3d1360e11b148061054757506001600160e01b031982166303a24d0760e21b145b8061051157506301ffc9a760e01b6001600160e01b0319831614610511565b336001600160a01b037f000000000000000000000000000000000000000000000000000000000000000016146105af5760405163c6829f8360e01b815260040160405180910390fd5b6105ba83838361192a565b60405183907f85e1543bf2f84fe80c6badbce3648c8539ad1df4d2b3d822938ca0538be727e6905f90a2505050565b6105f16119e9565b827f00000000000000000000000000000000000000000000000000000000000000006001600160401b0316816001600160401b03160361065457604051635381a44b60e01b81526001600160401b03821660048201526024015b60405180910390fd5b6040805180820182526001600160a01b03858116825260208083018681526001600160401b0389165f908152600c909252939020825181546001600160a01b0319169216919091178155915190919060018201906106b2908261385f565b509050507f59cc0b49d3359ac35e3872e99199469b6a1025c9a945cd9b6a411bffe337272d8484846040516106e993929190613919565b60405180910390a150505050565b5f818152600a6020526040812080546060929190610714906137e3565b80601f0160208091040260200160405190810160405280929190818152602001828054610740906137e3565b801561078b5780601f106107625761010080835404028352916020019161078b565b820191905f5260205f20905b81548152906001019060200180831161076e57829003601f168201915b505050505090505f8151116107a8576107a383611a3e565b6107aa565b805b9392505050565b5f6107ba611ad0565b6001600160401b0383165f908152600c602052604090205483906001600160a01b031661080557604051630e19fdf760e11b81526001600160401b038216600482015260240161064b565b5f61080f886106f7565b905061081c8a89896118bb565b6040805160a0810182526001600160401b0387165f908152600c602052918220546001600160a01b031660c08201528060e0810160405160208183030381529060405281526020018c8c8c8c8c8860405160200161087f96959493929190613954565b60408051601f1981840301815291905281526020015f6040519080825280602002602001820160405280156108d957816020015b604080518082019091525f80825260208201528152602001906001900390816108b35790505b5081526020015f8760018111156108f2576108f26139ac565b1461091d577f000000000000000000000000000000000000000000000000000000000000000061091f565b5f5b6001600160a01b03168152602001600c5f896001600160401b03166001600160401b031681526020019081526020015f20600101805461095e906137e3565b80601f016020809104026020016040519081016040528092919081815260200182805461098a906137e3565b80156109d55780601f106109ac576101008083540402835291602001916109d5565b820191905f5260205f20905b8154815290600101906020018083116109b857829003601f168201915b505050505081525090505f7f00000000000000000000000000000000000000000000000000000000000000006001600160a01b03166320487ded88846040518363ffffffff1660e01b8152600401610a2e9291906139c0565b602060405180830381865afa158015610a49573d5f5f3e3d5ffd5b505050506040513d601f19601f82011682018060405250810190610a6d9190613a93565b90506001866001811115610a8357610a836139ac565b03610d06576040516370a0823160e01b815230600482015281907f00000000000000000000000000000000000000000000000000000000000000006001600160a01b0316906370a0823190602401602060405180830381865afa158015610aec573d5f5f3e3d5ffd5b505050506040513d601f19601f82011682018060405250810190610b109190613a93565b1015610bc0576040516370a0823160e01b81523060048201527f00000000000000000000000000000000000000000000000000000000000000006001600160a01b0316906370a0823190602401602060405180830381865afa158015610b78573d5f5f3e3d5ffd5b505050506040513d601f19601f82011682018060405250810190610b9c9190613a93565b6040516328fdcaa160e01b815260048101919091526024810182905260440161064b565b60405163095ea7b360e01b81526001600160a01b037f000000000000000000000000000000000000000000000000000000000000000081166004830152602482018390527f0000000000000000000000000000000000000000000000000000000000000000169063095ea7b3906044016020604051808303815f875af1158015610c4c573d5f5f3e3d5ffd5b505050506040513d601f19601f82011682018060405250810190610c709190613aaa565b506040516396f4e9f960e01b81526001600160a01b037f000000000000000000000000000000000000000000000000000000000000000016906396f4e9f990610cbf908a9086906004016139c0565b6020604051808303815f875af1158015610cdb573d5f5f3e3d5ffd5b505050506040513d601f19601f82011682018060405250810190610cff9190613a93565b9450610dc4565b80471015610d30576040516328fdcaa160e01b81524760048201526024810182905260440161064b565b6040516396f4e9f960e01b81526001600160a01b037f000000000000000000000000000000000000000000000000000000000000000016906396f4e9f9908390610d80908b9087906004016139c0565b60206040518083038185885af1158015610d9c573d5f5f3e3d5ffd5b50505050506040513d601f19601f82011682018060405250810190610dc19190613a93565b94505b7f300e6c20d2e9d8db9b2df40ebce943d9dae3fa3a8eaec841a3d1cb9a1e8b6ad78c8c8c8c8c7f00000000000000000000000000000000000000000000000000000000000000008d604051610e1f9796959493929190613ac5565b60405180910390a150505050610e356001600b55565b979650505050505050565b336001600160a01b0386168114801590610e615750610e5f868261181e565b155b15610e925760405163711bec9160e11b81526001600160a01b0380831660048301528716602482015260440161064b565b610e9f8686868686611afa565b505050505050565b610eaf6119e9565b6040516370a0823160e01b81523060048201525f906001600160a01b038416906370a0823190602401602060405180830381865afa158015610ef3573d5f5f3e3d5ffd5b505050506040513d601f19601f82011682018060405250810190610f179190613a93565b9050805f03610f3957604051630686827b60e51b815260040160405180910390fd5b610f4d6001600160a01b0384168383611b5f565b505050565b610f5a6119e9565b807f00000000000000000000000000000000000000000000000000000000000000006001600160401b0316816001600160401b031603610fb857604051635381a44b60e01b81526001600160401b038216600482015260240161064b565b6001600160401b0382165f908152600c6020526040812080546001600160a01b031916815590610feb6001830182612d07565b50506040516001600160401b03831681527f67e02000179a6045f4db8fb1b09f01e170b0347e0b698fc5112ce4d798ef19f69060200160405180910390a15050565b6060815183511461105e5781518351604051635b05999160e01b81526004810192909252602482015260440161064b565b5f83516001600160401b0381111561107857611078612df7565b6040519080825280602002602001820160405280156110a1578160200160208202803683370190505b5090505f5b84518110156110ef576020808202860101516110ca906020808402870101516104f0565b8282815181106110dc576110dc613b22565b60209081029190910101526001016110a6565b509392505050565b6110ff6119e9565b475f81900361112157604051630686827b60e51b815260040160405180910390fd5b5f826001600160a01b0316826040515f6040518083038185875af1925050503d805f811461116a576040519150601f19603f3d011682016040523d82523d5f602084013e61116f565b606091505b5050905080610f4d57604051632684a07960e01b815260040160405180910390fd5b6111996119e9565b600980546001600160a01b0319166001600160a01b0383169081179091556040517f141c634522c8bfcf25beba4c524ac0c87de0db74ebe83168cf5f3bf4d45fd898905f90a250565b6009546001600160a01b031633148015906111fd5750333014155b1561121b57604051630b676db160e01b815260040160405180910390fd5b6001600160a01b038316331480159061123b5750611239833361181e565b155b1561126f57335b60405163711bec9160e11b81526001600160a01b039182166004820152908416602482015260440161064b565b610f4d838383611bb1565b6008546001600160a01b031633146112cd5760405162461bcd60e51b815260206004820152601660248201527526bab9ba10313290383937b837b9b2b21037bbb732b960511b604482015260640161064b565b600780546001600160a01b0319808216339081179093556008805490911690556040516001600160a01b03909116919082907f8be0079c531659141344cd1fd0a4f28419497f9722a3daafe3b4186f6b6457e0905f90a350565b336001600160a01b037f00000000000000000000000000000000000000000000000000000000000000001614611372576040516335fdcccd60e21b815233600482015260240161064b565b61137a611ad0565b6020808201516001600160401b0381165f908152600c9092526040909120546001600160a01b03166113ca57604051630e19fdf760e11b81526001600160401b038216600482015260240161064b565b816020015182604001518060200190518101906113e79190613b36565b6001600160401b0382165f908152600c60205260409020546001600160a01b038281169116146114355760405163baf46cd160e01b81526001600160a01b038216600482015260240161064b565b5f846020015190505f5f5f5f5f5f8a6060015180602001905181019061145b9190613ba5565b955095509550955095509550611474858585858561178b565b7f8a69e2b5fbcc69a1f5d6326fb26db5bc43cd18d09d2e79a48a50b77da16432f986868686868c7f00000000000000000000000000000000000000000000000000000000000000006040516114cf9796959493929190613ac5565b60405180910390a1505050505050505050506114eb6001600b55565b50565b6114f9338383611bf4565b5050565b600d545f906001600160a01b0316331480159061152557506007546001600160a01b03163314155b15611543576040516302dc7d2f60e21b815260040160405180910390fd5b6115816040805160e08101909152805f81526020015f81526020015f8152602001606081526020016060815260200160608152602001606081525090565b6115ed306001600160a01b031663bd9a548b6040518163ffffffff1660e01b81526004015f60405180830381865afa1580156115bf573d5f5f3e3d5ffd5b505050506040513d5f823e601f3d908101601f191682016040526115e69190810190613c53565b8290611c88565b6040805160018082528183019092525f91816020015b606081526020019060019003908161160357905050905086815f8151811061162d5761162d613b22565b60209081029190910101526116428282611c94565b610e3561164e83611cbd565b878787611f81565b6009546001600160a01b031633148015906116715750333014155b1561168f57604051630b676db160e01b815260040160405180910390fd5b61169b8585858561204e565b5f5b8451811015610e9f578181815181106116b8576116b8613b22565b6020026020010151600a5f8784815181106116d5576116d5613b22565b602002602001015181526020019081526020015f2090816116f6919061385f565b5060010161169d565b6006805461170c906137e3565b80601f0160208091040260200160405190810160405280929190818152602001828054611738906137e3565b80156117835780601f1061175a57610100808354040283529160200191611783565b820191905f5260205f20905b81548152906001019060200180831161176657829003601f168201915b505050505081565b6009546001600160a01b031633148015906117a65750333014155b156117c457604051630b676db160e01b815260040160405180910390fd5b6117d08585858561208a565b5f848152600a60205260409020610e9f828261385f565b6117ef6119e9565b600d80546001600160a01b0319166001600160a01b0392909216919091179055565b6005805461170c906137e3565b6001600160a01b039182165f90815260016020908152604080832093909416825291909152205460ff1690565b336001600160a01b038616811480159061186c575061186a868261181e565b155b1561189d5760405163711bec9160e11b81526001600160a01b0380831660048301528716602482015260440161064b565b610e9f86868686866120e5565b6118b26119e9565b6114eb81612171565b6009546001600160a01b031633148015906118d65750333014155b156118f457604051630b676db160e01b815260040160405180910390fd5b6001600160a01b03831633148015906119145750611912833361181e565b155b1561191f5733611242565b610f4d83838361221a565b80511561194b578060405162461bcd60e51b815260040161064b919061300f565b5f5f5f5f858060200190518101906119639190613c8c565b6040805160608101825269ffffffffffffffffffff948516815292841660208085019182529285168483019081525f968752600e909352942091518254945191518416600160a01b0269ffffffffffffffffffff60a01b19928516600160501b026001600160a01b03199096169190941617939093179290921617905550505050505050565b6007546001600160a01b03163314611a3c5760405162461bcd60e51b815260206004820152601660248201527527b7363c9031b0b63630b1363290313c9037bbb732b960511b604482015260640161064b565b565b606060028054611a4d906137e3565b80601f0160208091040260200160405190810160405280929190818152602001828054611a79906137e3565b8015611ac45780601f10611a9b57610100808354040283529160200191611ac4565b820191905f5260205f20905b815481529060010190602001808311611aa757829003601f168201915b50505050509050919050565b6002600b5403611af357604051633ee5aeb560e01b815260040160405180910390fd5b6002600b55565b6001600160a01b038416611b2357604051632bfa23e760e11b81525f600482015260240161064b565b6001600160a01b038516611b4b57604051626a0d4560e21b81525f600482015260240161064b565b611b58858585858561227c565b5050505050565b604080516001600160a01b038416602482015260448082018490528251808303909101815260649091019091526020810180516001600160e01b031663a9059cbb60e01b179052610f4d9084906122cf565b6001600160a01b038316611bd957604051626a0d4560e21b81525f600482015260240161064b565b610f4d835f848460405180602001604052805f81525061227c565b6001600160a01b038216611c1c5760405162ced3e160e81b81525f600482015260240161064b565b6001600160a01b038381165f81815260016020908152604080832094871680845294825291829020805460ff191686151590811790915591519182527f17307eab39ab6107e8899845ad3d59bd9653f200f220920489ca2b5937696c31910160405180910390a3505050565b6114f9825f5f8461233b565b80515f03611cb55760405163fe936cb760e01b815260040160405180910390fd5b60a090910152565b60605f611ccb6101006123b8565b9050611d046040518060400160405280600c81526020016b31b7b232a637b1b0ba34b7b760a11b815250826123d890919063ffffffff16565b8251611d22906002811115611d1b57611d1b6139ac565b82906123f1565b6040805180820190915260088152676c616e677561676560c01b6020820152611d4c9082906123d8565b6040830151611d63908015611d1b57611d1b6139ac565b604080518082019091526006815265736f7572636560d01b6020820152611d8b9082906123d8565b6060830151611d9b9082906123d8565b60a08301515115611e26576040805180820190915260048152636172677360e01b6020820152611dcc9082906123d8565b611dd58161242a565b5f5b8360a0015151811015611e1c57611e148460a001518281518110611dfd57611dfd613b22565b6020026020010151836123d890919063ffffffff16565b600101611dd7565b50611e268161244e565b60808301515115611ee9575f83602001516002811115611e4857611e486139ac565b03611e665760405163a80d31f760e01b815260040160405180910390fd5b60408051808201909152600f81526e39b2b1b932ba39a637b1b0ba34b7b760891b6020820152611e979082906123d8565b611eb083602001516002811115611d1b57611d1b6139ac565b6040805180820190915260078152667365637265747360c81b6020820152611ed99082906123d8565b6080830151611ee990829061246c565b60c08301515115611f795760408051808201909152600981526862797465734172677360b81b6020820152611f1f9082906123d8565b611f288161242a565b5f5b8360c0015151811015611f6f57611f678460c001518281518110611f5057611f50613b22565b60200260200101518361246c90919063ffffffff16565b600101611f2a565b50611f798161244e565b515192915050565b5f5f7f00000000000000000000000000000000000000000000000000000000000000006001600160a01b031663461d27628688600188886040518663ffffffff1660e01b8152600401611fd8959493929190613cbf565b6020604051808303815f875af1158015611ff4573d5f5f3e3d5ffd5b505050506040513d601f19601f820116820180604052508101906120189190613a93565b60405190915081907f1131472297a800fee664d1d89cfa8f7676ff07189ecc53f80bbb5f4969099db8905f90a295945050505050565b6001600160a01b03841661207757604051632bfa23e760e11b81525f600482015260240161064b565b6120845f8585858561227c565b50505050565b6001600160a01b0384166120b357604051632bfa23e760e11b81525f600482015260240161064b565b60408051600180825260208201869052818301908152606082018590526080820190925290610e9f5f8784848761227c565b6001600160a01b03841661210e57604051632bfa23e760e11b81525f600482015260240161064b565b6001600160a01b03851661213657604051626a0d4560e21b81525f600482015260240161064b565b60408051600180825260208201869052818301908152606082018590526080820190925290612168878784848761227c565b50505050505050565b336001600160a01b038216036121c95760405162461bcd60e51b815260206004820152601760248201527f43616e6e6f74207472616e7366657220746f2073656c66000000000000000000604482015260640161064b565b600880546001600160a01b0319166001600160a01b03838116918217909255600754604051919216907fed8889f560326eb138920d842192f0eb3dd22b4f139c87a2c57538e05bae1278905f90a350565b6001600160a01b03831661224257604051626a0d4560e21b81525f600482015260240161064b565b604080516001808252602082018590528183019081526060820184905260a082019092525f60808201818152919291611b58918791859085905b61228885858585612479565b6001600160a01b03841615611b5857825133906001036122c157602084810151908401516122ba838989858589612560565b5050610e9f565b610e9f818787878787612681565b5f5f60205f8451602086015f885af1806122ee576040513d5f823e3d81fd5b50505f513d91508115612305578060011415612312565b6001600160a01b0384163b155b1561208457604051635274afe760e01b81526001600160a01b038516600482015260240161064b565b80515f0361235c576040516322ce3edd60e01b815260040160405180910390fd5b8383600281111561236f5761236f6139ac565b90816002811115612382576123826139ac565b90525060408401828015612398576123986139ac565b908180156123a8576123a86139ac565b9052506060909301929092525050565b6123c0612d3e565b80516123cc9083612768565b505f6020820152919050565b6123e582600383516127dc565b8151610f4d90826128f5565b81516123fe9060c2612915565b506114f9828260405160200161241691815260200190565b60405160208183030381529060405261246c565b61243581600461297c565b6001816020018181516124489190613d1b565b90525050565b61245981600761297c565b6001816020018181516124489190613d2e565b6123e582600283516127dc565b61248584848484612993565b6001600160a01b038416612502575f805b83518110156124e95760208181028481018201519086018201515f9081526003909252604082208054919283926124ce908490613d1b565b909155506124de90508184613d1b565b925050600101612496565b508060045f8282546124fb9190613d1b565b9091555050505b6001600160a01b038316612084575f805b835181101561254f5760208181028481018201519086018201515f90815260039092526040909120805482900390559190910190600101612513565b506004805491909103905550505050565b6001600160a01b0384163b15610e9f5760405163f23a6e6160e01b81526001600160a01b0385169063f23a6e61906125a49089908990889088908890600401613d41565b6020604051808303815f875af19250505080156125de575060408051601f3d908101601f191682019092526125db91810190613d7a565b60015b612645573d80801561260b576040519150601f19603f3d011682016040523d82523d5f602084013e612610565b606091505b5080515f0361263d57604051632bfa23e760e11b81526001600160a01b038616600482015260240161064b565b805160208201fd5b6001600160e01b0319811663f23a6e6160e01b1461216857604051632bfa23e760e11b81526001600160a01b038616600482015260240161064b565b6001600160a01b0384163b15610e9f5760405163bc197c8160e01b81526001600160a01b0385169063bc197c81906126c59089908990889088908890600401613d95565b6020604051808303815f875af19250505080156126ff575060408051601f3d908101601f191682019092526126fc91810190613d7a565b60015b61272c573d80801561260b576040519150601f19603f3d011682016040523d82523d5f602084013e612610565b6001600160e01b0319811663bc197c8160e01b1461216857604051632bfa23e760e11b81526001600160a01b038616600482015260240161064b565b60408051808201909152606081525f6020820152612787602083613df2565b156127af57612797602083613df2565b6127a2906020613d2e565b6127ac9083613d1b565b91505b60208084018390526040518085525f81529081840101818110156127d1575f5ffd5b604052509192915050565b6017816001600160401b0316116128025782516120849060e0600585901b168317612915565b60ff816001600160401b03161161284257825161282a906018611fe0600586901b1617612915565b508251612084906001600160401b0383166001612ba2565b61ffff816001600160401b03161161288357825161286b906019611fe0600586901b1617612915565b508251612084906001600160401b0383166002612ba2565b63ffffffff816001600160401b0316116128c65782516128ae90601a611fe0600586901b1617612915565b508251612084906001600160401b0383166004612ba2565b82516128dd90601b611fe0600586901b1617612915565b508251612084906001600160401b0383166008612ba2565b60408051808201909152606081525f60208201526107aa83838451612c24565b60408051808201909152606081525f60208201528251515f612938826001613d1b565b9050846020015182106129595761295985612954836002613e11565b612cf0565b8451602083820101858153508051821115612972578181525b5093949350505050565b8151610f4d90601f611fe0600585901b1617612915565b80518251146129c25781518151604051635b05999160e01b81526004810192909252602482015260440161064b565b335f5b8351811015612ac4576020818102858101820151908501909101516001600160a01b03881615612a76575f828152602081815260408083206001600160a01b038c16845290915290205481811015612a50576040516303dee4c560e01b81526001600160a01b038a16600482015260248101829052604481018390526064810184905260840161064b565b5f838152602081815260408083206001600160a01b038d16845290915290209082900390555b6001600160a01b03871615612aba575f828152602081815260408083206001600160a01b038b16845290915281208054839290612ab4908490613d1b565b90915550505b50506001016129c5565b508251600103612b445760208301515f906020840151909150856001600160a01b0316876001600160a01b0316846001600160a01b03167fc3d58168c5ae7397731d063d5bbf3d657854427343f4c083240f7aacaa2d0f628585604051612b35929190918252602082015260400190565b60405180910390a45050611b58565b836001600160a01b0316856001600160a01b0316826001600160a01b03167f4a39dc06d4c0dbc64b70af90fd698a233a518aa5d07e595d983b8c0526c8f7fb8686604051612b93929190613e28565b60405180910390a45050505050565b60408051808201909152606081525f60208201528351515f612bc48285613d1b565b90508560200151811115612be157612be186612954836002613e11565b5f6001612bf086610100613f2f565b612bfa9190613d2e565b90508651828101878319825116178152508051831115612c18578281525b50959695505050505050565b60408051808201909152606081525f60208201528251821115612c45575f5ffd5b8351515f612c538483613d1b565b90508560200151811115612c7057612c7086612954836002613e11565b85518051838201602001915f9180851115612c89578482525b505050602086015b60208610612cc95780518252612ca8602083613d1b565b9150612cb5602082613d1b565b9050612cc2602087613d2e565b9550612c91565b5181515f1960208890036101000a0190811690199190911617905250849150509392505050565b8151612cfc8383612768565b5061208483826128f5565b508054612d13906137e3565b5f825580601f10612d22575050565b601f0160209004905f5260205f20908101906114eb9190612d71565b6040518060400160405280612d656040518060400160405280606081526020015f81525090565b81526020015f81525090565b5b80821115612d85575f8155600101612d72565b5090565b6001600160a01b03811681146114eb575f5ffd5b5f5f60408385031215612dae575f5ffd5b8235612db981612d89565b946020939093013593505050565b6001600160e01b0319811681146114eb575f5ffd5b5f60208284031215612dec575f5ffd5b81356107aa81612dc7565b634e487b7160e01b5f52604160045260245ffd5b604080519081016001600160401b0381118282101715612e2d57612e2d612df7565b60405290565b60405160a081016001600160401b0381118282101715612e2d57612e2d612df7565b604051601f8201601f191681016001600160401b0381118282101715612e7d57612e7d612df7565b604052919050565b5f6001600160401b03821115612e9d57612e9d612df7565b50601f01601f191660200190565b5f82601f830112612eba575f5ffd5b8135602083015f612ed2612ecd84612e85565b612e55565b9050828152858383011115612ee5575f5ffd5b828260208301375f92810160200192909252509392505050565b5f5f5f60608486031215612f11575f5ffd5b8335925060208401356001600160401b03811115612f2d575f5ffd5b612f3986828701612eab565b92505060408401356001600160401b03811115612f54575f5ffd5b612f6086828701612eab565b9150509250925092565b80356001600160401b0381168114612f80575f5ffd5b919050565b5f5f5f60608486031215612f97575f5ffd5b612fa084612f6a565b92506020840135612fb081612d89565b915060408401356001600160401b03811115612f54575f5ffd5b5f60208284031215612fda575f5ffd5b5035919050565b5f81518084528060208401602086015e5f602082860101526020601f19601f83011685010191505092915050565b602081525f6107aa6020830184612fe1565b5f5f5f5f5f5f5f60e0888a031215613037575f5ffd5b873561304281612d89565b9650602088013561305281612d89565b9550604088013594506060880135935060808801356001600160401b0381111561307a575f5ffd5b6130868a828b01612eab565b93505061309560a08901612f6a565b915060c0880135600281106130a8575f5ffd5b8091505092959891949750929550565b5f6001600160401b038211156130d0576130d0612df7565b5060051b60200190565b5f82601f8301126130e9575f5ffd5b81356130f7612ecd826130b8565b8082825260208201915060208360051b860101925085831115613118575f5ffd5b602085015b8381101561313557803583526020928301920161311d565b5095945050505050565b5f5f5f5f5f60a08688031215613153575f5ffd5b853561315e81612d89565b9450602086013561316e81612d89565b935060408601356001600160401b03811115613188575f5ffd5b613194888289016130da565b93505060608601356001600160401b038111156131af575f5ffd5b6131bb888289016130da565b92505060808601356001600160401b038111156131d6575f5ffd5b6131e288828901612eab565b9150509295509295909350565b5f5f60408385031215613200575f5ffd5b823561320b81612d89565b9150602083013561321b81612d89565b809150509250929050565b5f60208284031215613236575f5ffd5b6107aa82612f6a565b5f5f60408385031215613250575f5ffd5b82356001600160401b03811115613265575f5ffd5b8301601f81018513613275575f5ffd5b8035613283612ecd826130b8565b8082825260208201915060208360051b8501019250878311156132a4575f5ffd5b6020840193505b828410156132cf5783356132be81612d89565b8252602093840193909101906132ab565b945050505060208301356001600160401b038111156132ec575f5ffd5b6132f8858286016130da565b9150509250929050565b5f8151808452602084019350602083015f5b82811015612972578151865260209586019590910190600101613314565b602081525f6107aa6020830184613302565b5f60208284031215613354575f5ffd5b81356107aa81612d89565b5f5f5f60608486031215613371575f5ffd5b833561337c81612d89565b925060208401356001600160401b03811115613396575f5ffd5b6133a2868287016130da565b92505060408401356001600160401b038111156133bd575f5ffd5b612f60868287016130da565b5f82601f8301126133d8575f5ffd5b81356133e6612ecd826130b8565b8082825260208201915060208360061b860101925085831115613407575f5ffd5b602085015b838110156131355760408188031215613423575f5ffd5b61342b612e0b565b813561343681612d89565b815260208281013581830152908452929092019160400161340c565b5f60208284031215613462575f5ffd5b81356001600160401b03811115613477575f5ffd5b820160a08185031215613488575f5ffd5b613490612e33565b813581526134a060208301612f6a565b602082015260408201356001600160401b038111156134bd575f5ffd5b6134c986828501612eab565b60408301525060608201356001600160401b038111156134e7575f5ffd5b6134f386828501612eab565b60608301525060808201356001600160401b03811115613511575f5ffd5b61351d868285016133c9565b608083015250949350505050565b80151581146114eb575f5ffd5b5f5f60408385031215613549575f5ffd5b823561355481612d89565b9150602083013561321b8161352b565b5f5f5f5f60808587031215613577575f5ffd5b84356001600160401b0381111561358c575f5ffd5b61359887828801612eab565b9450506135a760208601612f6a565b9250604085013563ffffffff811681146135bf575f5ffd5b9396929550929360600135925050565b5f82601f8301126135de575f5ffd5b81356135ec612ecd826130b8565b8082825260208201915060208360051b86010192508583111561360d575f5ffd5b602085015b838110156131355780356001600160401b0381111561362f575f5ffd5b61363e886020838a0101612eab565b84525060209283019201613612565b5f5f5f5f5f60a08688031215613661575f5ffd5b853561366c81612d89565b945060208601356001600160401b03811115613686575f5ffd5b613692888289016130da565b94505060408601356001600160401b038111156136ad575f5ffd5b6136b9888289016130da565b93505060608601356001600160401b038111156136d4575f5ffd5b6136e088828901612eab565b92505060808601356001600160401b038111156136fb575f5ffd5b6131e2888289016135cf565b5f5f5f5f5f60a0868803121561371b575f5ffd5b853561372681612d89565b9450602086013593506040860135925060608601356001600160401b0381111561374e575f5ffd5b6131bb88828901612eab565b5f5f5f5f5f60a0868803121561376e575f5ffd5b853561377981612d89565b9450602086013561378981612d89565b9350604086013592506060860135915060808601356001600160401b038111156131d6575f5ffd5b5f5f5f606084860312156137c3575f5ffd5b83356137ce81612d89565b95602085013595506040909401359392505050565b600181811c908216806137f757607f821691505b60208210810361381557634e487b7160e01b5f52602260045260245ffd5b50919050565b601f821115610f4d57805f5260205f20601f840160051c810160208510156138405750805b601f840160051c820191505b81811015611b58575f815560010161384c565b81516001600160401b0381111561387857613878612df7565b61388c8161388684546137e3565b8461381b565b6020601f8211600181146138be575f83156138a75750848201515b5f19600385901b1c1916600184901b178455611b58565b5f84815260208120601f198516915b828110156138ed57878501518255602094850194600190920191016138cd565b508482101561390a57868401515f19600387901b60f8161c191681555b50505050600190811b01905550565b6001600160401b03841681526001600160a01b03831660208201526060604082018190525f9061394b90830184612fe1565b95945050505050565b6001600160a01b03878116825286166020820152604081018590526060810184905260c0608082018190525f9061398d90830185612fe1565b82810360a084015261399f8185612fe1565b9998505050505050505050565b634e487b7160e01b5f52602160045260245ffd5b6001600160401b0383168152604060208201525f825160a060408401526139ea60e0840182612fe1565b90506020840151603f19848303016060850152613a078282612fe1565b6040860151858203603f190160808701528051808352602091820194505f93509101905b80831015613a6257835180516001600160a01b03168352602090810151818401529093019260019290920191604090910190613a2b565b5060608601516001600160a01b031660a08601526080860151858203603f190160c08701529250610e358184612fe1565b5f60208284031215613aa3575f5ffd5b5051919050565b5f60208284031215613aba575f5ffd5b81516107aa8161352b565b6001600160a01b03888116825287166020820152604081018690526060810185905260e0608082018190525f90613afe90830186612fe1565b6001600160401b0394851660a08401529290931660c0909101529695505050505050565b634e487b7160e01b5f52603260045260245ffd5b5f60208284031215613b46575f5ffd5b81516107aa81612d89565b5f613b5e612ecd84612e85565b9050828152838383011115613b71575f5ffd5b8282602083015e5f602084830101529392505050565b5f82601f830112613b96575f5ffd5b6107aa83835160208501613b51565b5f5f5f5f5f5f60c08789031215613bba575f5ffd5b8651613bc581612d89565b6020880151909650613bd681612d89565b6040880151606089015160808a015192975090955093506001600160401b03811115613c00575f5ffd5b8701601f81018913613c10575f5ffd5b613c1f89825160208401613b51565b92505060a08701516001600160401b03811115613c3a575f5ffd5b613c4689828a01613b87565b9150509295509295509295565b5f60208284031215613c63575f5ffd5b81516001600160401b03811115613c78575f5ffd5b613c8484828501613b87565b949350505050565b5f5f5f5f60808587031215613c9f575f5ffd5b505082516020840151604085015160609095015191969095509092509050565b6001600160401b038616815260a060208201525f613ce060a0830187612fe1565b61ffff9590951660408301525063ffffffff92909216606083015260809091015292915050565b634e487b7160e01b5f52601160045260245ffd5b8082018082111561051157610511613d07565b8181038181111561051157610511613d07565b6001600160a01b03868116825285166020820152604081018490526060810183905260a0608082018190525f90610e3590830184612fe1565b5f60208284031215613d8a575f5ffd5b81516107aa81612dc7565b6001600160a01b0386811682528516602082015260a0604082018190525f90613dc090830186613302565b8281036060840152613dd28186613302565b90508281036080840152613de68185612fe1565b98975050505050505050565b5f82613e0c57634e487b7160e01b5f52601260045260245ffd5b500690565b808202811582820484141761051157610511613d07565b604081525f613e3a6040830185613302565b828103602084015261394b8185613302565b6001815b6001841115613e8757808504811115613e6b57613e6b613d07565b6001841615613e7957908102905b60019390931c928002613e50565b935093915050565b5f82613e9d57506001610511565b81613ea957505f610511565b8160018114613ebf5760028114613ec957613ee5565b6001915050610511565b60ff841115613eda57613eda613d07565b50506001821b610511565b5060208310610133831016604e8410600b8410161715613f08575081810a610511565b613f145f198484613e4c565b805f1904821115613f2757613f27613d07565b029392505050565b5f6107aa8383613e8f56fea2646970667358221220c12fda24cd94aa5ce35b1acbde1a7596f70218332330fd725913bfedd8a4c2af64736f6c634300081c0033636f6e7374207b20657468657273207d203d20617761697420696d706f727428276e706d3a65746865727340362e31302e3027293b636f6e73742048617368203d20617761697420696d706f727428276e706d3a697066732d6f6e6c792d6861736840342e302e3027293b636f6e7374204d41585f52455452494553203d20333b6c6574206c6173744572726f72203d206e756c6c3b666f7220286c657420617474656d7074203d20303b20617474656d7074203c3d204d41585f524554524945533b20617474656d70742b2b29207b2020747279207b2020202069662028617474656d7074203e203029207b202020202020636f6e736f6c652e6c6f672860526574727920617474656d707420247b617474656d70747d206f6620247b4d41585f524554524945537d60293b2020202020206177616974206e65772050726f6d697365287265736f6c7665203d3e2073657454696d656f7574287265736f6c76652c2031303030202a20617474656d707429293b202020207d20202020636f6e737420617069526573706f6e7365203d2061776169742046756e6374696f6e732e6d616b654874747052657175657374287b20202020202075726c3a206068747470733a2f2f6170692e627269646765646174616f75747075742e636f6d2f6170692f76322f4f446174612f746573742f50726f70657274792827505f36393137396566396237626237383364363033396162363627293f6163636573735f746f6b656e3d3662616361353437373432633666393661366666373162313338343234663231602c20202020202074696d656f75743a20353030302c202020207d293b202020206966202821617069526573706f6e7365207c7c2021617069526573706f6e73652e6461746129207b2020202020207468726f77206e6577204572726f72282741504920726573706f6e736520697320696e76616c696427293b202020207d20202020636f6e73742064617461203d20617069526573706f6e73652e646174613b20202020636f6e7374207265616c45737461746541646472657373203d20646174612e556e70617273656441646472657373207c7c2027273b20202020636f6e737420796561724275696c74203d204e756d62657228646174612e596561724275696c7429207c7c20303b20202020636f6e7374206c6f7453697a6553717561726546656574203d204e756d62657228646174612e4c6f7453697a655371756172654665657429207c7c20303b20202020636f6e7374206c6976696e6741726561203d204e756d62657228646174612e4c6976696e674172656129207c7c20303b20202020636f6e737420626564726f6f6d73546f74616c203d204e756d62657228646174612e426564726f6f6d73546f74616c29207c7c20303b20202020636f6e7374206d65746164617461203d207b2020202020206e616d653a20605265616c2045737461746520546f6b656e602c202020202020617474726962757465733a205b20202020202020207b2074726169745f747970653a20607265616c45737461746541646472657373602c2076616c75653a207265616c45737461746541646472657373207d2c20202020202020207b2074726169745f747970653a2060796561724275696c74602c2076616c75653a20796561724275696c74207d2c20202020202020207b2074726169745f747970653a20606c6f7453697a6553717561726546656574602c2076616c75653a206c6f7453697a6553717561726546656574207d2c20202020202020207b2074726169745f747970653a20606c6976696e6741726561602c2076616c75653a206c6976696e6741726561207d2c20202020202020207b2074726169745f747970653a2060626564726f6f6d73546f74616c602c2076616c75653a20626564726f6f6d73546f74616c207d2020202020205d202020207d3b20202020636f6e7374206d65746164617461537472696e67203d204a534f4e2e737472696e67696679286d65746164617461293b20202020636f6e73742069706673436964203d20617761697420486173682e6f66286d65746164617461537472696e67293b2020202072657475726e2046756e6374696f6e732e656e636f6465537472696e672860697066733a2f2f247b697066734369647d60293b20207d20636174636820286572726f7229207b202020206c6173744572726f72203d206572726f723b20202020636f6e736f6c652e6572726f722860417474656d707420247b617474656d7074202b20317d206661696c65643a602c206572726f722e6d657373616765293b2020202069662028617474656d7074203d3d3d204d41585f5245545249455329207b2020202020207468726f77206e6577204572726f7228604150492072657175657374206661696c656420616674657220247b4d41585f52455452494553202b20317d20617474656d7074733a20247b6572726f722e6d6573736167657d60293b202020207d20207d7d636f6e7374207b20657468657273207d203d20617761697420696d706f727428276e706d3a65746865727340362e31302e3027293b636f6e737420616269436f646572203d206574686572732e416269436f6465722e64656661756c74416269436f64657228293b636f6e737420746f6b656e4964203d20617267735b305d3b636f6e7374204d41585f52455452494553203d20333b6c6574206c6173744572726f72203d206e756c6c3b666f7220286c657420617474656d7074203d20303b20617474656d7074203c3d204d41585f524554524945533b20617474656d70742b2b29207b2020747279207b2020202069662028617474656d7074203e203029207b202020202020636f6e736f6c652e6c6f672860526574727920617474656d707420247b617474656d70747d206f6620247b4d41585f524554524945537d60293b2020202020206177616974206e65772050726f6d697365287265736f6c7665203d3e2073657454696d656f7574287265736f6c76652c2031303030202a20617474656d707429293b202020207d20202020636f6e737420617069526573706f6e7365203d2061776169742046756e6374696f6e732e6d616b654874747052657175657374287b20202020202075726c3a206068747470733a2f2f6170692e627269646765646174616f75747075742e636f6d2f6170692f76322f4f446174612f746573742f50726f70657274792827505f36393137396566396237626237383364363033396162363627293f6163636573735f746f6b656e3d3662616361353437373432633666393661366666373162313338343234663231602c20202020202074696d656f75743a20353030302c202020207d293b202020206966202821617069526573706f6e7365207c7c2021617069526573706f6e73652e6461746129207b2020202020207468726f77206e6577204572726f72282741504920726573706f6e736520697320696e76616c696427293b202020207d20202020636f6e73742064617461203d20617069526573706f6e73652e646174613b20202020636f6e7374206c6973745072696365203d204e756d62657228646174612e4c697374507269636529207c7c20303b20202020636f6e7374206f726967696e616c4c6973745072696365203d204e756d62657228646174612e4f726967696e616c4c697374507269636529207c7c20303b20202020636f6e737420746178417373657373656456616c7565203d204e756d62657228646174612e546178417373657373656456616c756529207c7c20303b20202020636f6e737420656e636f646564203d20616269436f6465722e656e636f6465285b6075696e74323536602c206075696e74323536602c206075696e74323536602c206075696e74323536605d2c205b746f6b656e49642c206c69737450726963652c206f726967696e616c4c69737450726963652c20746178417373657373656456616c75655d293b2020202072657475726e206574686572732e676574427974657328656e636f646564293b20207d20636174636820286572726f7229207b202020206c6173744572726f72203d206572726f723b20202020636f6e736f6c652e6572726f722860417474656d707420247b617474656d7074202b20317d206661696c65643a602c206572726f722e6d657373616765293b2020202069662028617474656d7074203d3d3d204d41585f5245545249455329207b2020202020207468726f77206e6577204572726f7228604150492072657175657374206661696c656420616674657220247b4d41585f52455452494553202b20317d20617474656d7074733a20247b6572726f722e6d6573736167657d60293b202020207d20207d7d",
  "linkReferences": {},
  "deployedLinkReferences": {},
  "immutableReferences": {
    "277": [
      {
        "length": 32,
        "start": 1393
      },
      {
        "length": 32,
        "start": 8069
      }
    ],
    "9736": [
      {
        "length": 32,
        "start": 2530
      },
      {
        "length": 32,
        "start": 3031
      },
      {
        "length": 32,
        "start": 3208
      },
      {
        "length": 32,
        "start": 3399
      },
      {
        "length": 32,
        "start": 4914
      }
    ],
    "9739": [
      {
        "length": 32,
        "start": 2297
      },
      {
        "length": 32,
        "start": 2719
      },
      {
        "length": 32,
        "start": 2859
      },
      {
        "length": 32,
        "start": 3078
      }
    ],
    "9741": [
      {
        "length": 32,
        "start": 1524
      },
      {
        "length": 32,
        "start": 3564
      },
      {
        "length": 32,
        "start": 3933
      },
      {
        "length": 32,
        "start": 5277
      }
    ]
  },
  "inputSourceName": "project/contracts/RealEstateTokenRetry.sol",
  "buildInfoId": "solc-0_8_28-66014b5c3cfcb9aab757e67fccffdb9f4a0e78e4"
}